{"bytecode":"608060405234801561001057600080fd5b50600280546001600160a01b03191633179055610d04806100326000396000f3fe608060405234801561001057600080fd5b50600436106100cf5760003560e01c80638cd2e0c71161008c578063ad5c464811610066578063ad5c464814610298578063f1076da1146102b3578063f2df757b146102ff578063f61556c81461032857600080fd5b80638cd2e0c7146101c8578063946ccfc0146101db5780639fed03001461024a57600080fd5b80630b1eedb8146100d4578063150b7a02146100e95780631e315fd6146101255780633a1657b414610138578063431aabc214610195578063617a19c0146101b5575b600080fd5b6100e76100e236600461096f565b61033b565b005b6101076100f73660046109d0565b630a85bd0160e11b949350505050565b6040516001600160e01b031990911681526020015b60405180910390f35b6100e7610133366004610aac565b6103a3565b61017d610146366004610aac565b6001600160a01b03928316600090815260016020908152604080832094861683529381528382209282529190915220600201541690565b6040516001600160a01b03909116815260200161011c565b6101a86101a3366004610ae8565b610467565b60405161011c9190610b01565b6100e76101c3366004610b56565b610492565b6100e76101d6366004610bab565b610636565b6102256101e9366004610aac565b60016020818152600094855260408086208252938552838520905290835291208054918101546002909101546001600160a01b03918216911683565b604080519384526001600160a01b03928316602085015291169082015260600161011c565b61028a610258366004610aac565b6001600160a01b0392831660009081526001602090815260408083209490951682529283528381209181529152205490565b60405190815260200161011c565b61017d73c778417e063141139fce010982780140aa0cd5ab81565b6101a86102c1366004610bde565b604051606083811b6bffffffffffffffffffffffff191660208301526034820183905290605401604051602081830303815290604052905092915050565b61028a61030d366004610c08565b6001600160a01b031660009081526020819052604090205490565b6100e7610336366004610bde565b6108ed565b604051632142170760e11b81526001600160a01b038316906342842e0e9061036b90879087908690600401610c2a565b600060405180830381600087803b15801561038557600080fd5b505af1158015610399573d6000803e3d6000fd5b5050505050505050565b6001600160a01b03838116600090815260016020908152604080832084871680855290835281842086855290925291829020600201549151632142170760e11b815290926342842e0e9261040292309291909116908690600401610c2a565b600060405180830381600087803b15801561041c57600080fd5b505af1158015610430573d6000803e3d6000fd5b505050506001600160a01b039283166000908152600160209081526040808320949095168252928352838120918152915290812055565b60608160405160200161047c91815260200190565b6040516020818303038152906040529050919050565b6001600160a01b03858116600090815260016020908152604080832087851684528252808320868452909152902060020154811690851614610506576001600160a01b0380861660009081526001602090815260408083209387168352928152828220858352905220541561050657600080fd5b604051632142170760e11b81526001600160a01b038416906342842e0e9061053690889030908790600401610c2a565b600060405180830381600087803b15801561055057600080fd5b505af1158015610564573d6000803e3d6000fd5b505050506001600160a01b0385811660009081526001602090815260408083209387168352928152828220858352905290812080548392906105a7908490610c64565b90915550506001600160a01b038516600090815260208190526040812080548392906105d4908490610c64565b9091555050506001600160a01b03938416600081815260016020818152604080842096891684529581528583209483529390935292909220600281018054949095166001600160a01b0319948516179094559290920180549091169091179055565b6040516370a0823160e01b8152336004820152819073c778417e063141139fce010982780140aa0cd5ab906370a0823190602401602060405180830381865afa158015610687573d6000803e3d6000fd5b505050506040513d601f19601f820116820180604052508101906106ab9190610c7c565b10156106b657600080fd5b3360009081526001602090815260408083206001600160a01b0387168452825280832085845290915290205481111561073f5760405162461bcd60e51b815260206004820152602160248201527f43616e6e6f7420706179206261636b206d6f7265207468616e20796f75206f776044820152606560f81b606482015260840160405180910390fd5b3360008181526001602090815260408083206001600160a01b038881168552908352818420878552909252918290206002015491516323b872dd60e01b815273c778417e063141139fce010982780140aa0cd5ab936323b872dd936107ad9391929116908690600401610c2a565b6020604051808303816000875af11580156107cc573d6000803e3d6000fd5b505050506040513d601f19601f820116820180604052508101906107f09190610c95565b503360009081526001602090815260408083206001600160a01b038716845282528083208584529091528120805483929061082c908490610cb7565b90915550503360009081526020819052604081208054839290610850908490610cb7565b90915550503360009081526001602090815260408083206001600160a01b038716845282528083208584529091529020546108e857604051632142170760e11b81526001600160a01b038416906342842e0e906108b590309033908790600401610c2a565b600060405180830381600087803b1580156108cf57600080fd5b505af11580156108e3573d6000803e3d6000fd5b505050505b505050565b604051632142170760e11b81526001600160a01b038316906342842e0e9061091d90309033908690600401610c2a565b600060405180830381600087803b15801561093757600080fd5b505af115801561094b573d6000803e3d6000fd5b505050505050565b80356001600160a01b038116811461096a57600080fd5b919050565b6000806000806080858703121561098557600080fd5b61098e85610953565b935061099c60208601610953565b92506109aa60408601610953565b9396929550929360600135925050565b634e487b7160e01b600052604160045260246000fd5b600080600080608085870312156109e657600080fd5b6109ef85610953565b93506109fd60208601610953565b925060408501359150606085013567ffffffffffffffff80821115610a2157600080fd5b818701915087601f830112610a3557600080fd5b813581811115610a4757610a476109ba565b604051601f8201601f19908116603f01168101908382118183101715610a6f57610a6f6109ba565b816040528281528a6020848701011115610a8857600080fd5b82602086016020830137600060208483010152809550505050505092959194509250565b600080600060608486031215610ac157600080fd5b610aca84610953565b9250610ad860208501610953565b9150604084013590509250925092565b600060208284031215610afa57600080fd5b5035919050565b600060208083528351808285015260005b81811015610b2e57858101830151858201604001528201610b12565b81811115610b40576000604083870101525b50601f01601f1916929092016040019392505050565b600080600080600060a08688031215610b6e57600080fd5b610b7786610953565b9450610b8560208701610953565b9350610b9360408701610953565b94979396509394606081013594506080013592915050565b600080600060608486031215610bc057600080fd5b610bc984610953565b95602085013595506040909401359392505050565b60008060408385031215610bf157600080fd5b610bfa83610953565b946020939093013593505050565b600060208284031215610c1a57600080fd5b610c2382610953565b9392505050565b6001600160a01b039384168152919092166020820152604081019190915260600190565b634e487b7160e01b600052601160045260246000fd5b60008219821115610c7757610c77610c4e565b500190565b600060208284031215610c8e57600080fd5b5051919050565b600060208284031215610ca757600080fd5b81518015158114610c2357600080fd5b600082821015610cc957610cc9610c4e565b50039056fea2646970667358221220bfe38ae8ff5c570c6037a308fac94377af23219e1cd53d7cde5c3d5d13f5490a64736f6c634300080b0033","bytecodeSha1":"66fd415c5c0176fad8988ce20fcd369a53a33079","type":"contract","abi":[{"inputs":[],"stateMutability":"nonpayable","type":"constructor","name":"constructor"},{"inputs":[],"name":"WETH","outputs":[{"internalType":"address","name":"","type":"address"}],"stateMutability":"view","type":"function"},{"inputs":[{"internalType":"address","name":"_buyer","type":"address"},{"internalType":"address","name":"_seller","type":"address"},{"internalType":"address","name":"_collection","type":"address"},{"internalType":"uint256","name":"_tokenID","type":"uint256"},{"internalType":"uint256","name":"_itemValue","type":"uint256"}],"name":"collateralizedPurchase","outputs":[],"stateMutability":"nonpayable","type":"function"},{"inputs":[{"internalType":"address","name":"nft","type":"address"},{"internalType":"uint256","name":"_tokenID","type":"uint256"}],"name":"emergencyExit","outputs":[],"stateMutability":"nonpayable","type":"function"},{"inputs":[{"internalType":"address","name":"_buyer","type":"address"},{"internalType":"address","name":"_seller","type":"address"},{"internalType":"address","name":"_collection","type":"address"},{"internalType":"uint256","name":"_tokenID","type":"uint256"}],"name":"exchangeNFT","outputs":[],"stateMutability":"nonpayable","type":"function"},{"inputs":[{"internalType":"address","name":"_buyer","type":"address"},{"internalType":"address","name":"_collection","type":"address"},{"internalType":"uint256","name":"_tokenID","type":"uint256"}],"name":"handleDefault","outputs":[],"stateMutability":"nonpayable","type":"function"},{"inputs":[{"internalType":"address","name":"","type":"address"},{"internalType":"address","name":"","type":"address"},{"internalType":"uint256","name":"","type":"uint256"}],"name":"loanTracker","outputs":[{"internalType":"uint256","name":"amountOwed","type":"uint256"},{"internalType":"address","name":"buyer","type":"address"},{"internalType":"address","name":"seller","type":"address"}],"stateMutability":"view","type":"function"},{"inputs":[{"internalType":"uint256","name":"tokenID","type":"uint256"}],"name":"number","outputs":[{"internalType":"bytes","name":"","type":"bytes"}],"stateMutability":"view","type":"function"},{"inputs":[{"internalType":"address","name":"","type":"address"},{"internalType":"address","name":"","type":"address"},{"internalType":"uint256","name":"","type":"uint256"},{"internalType":"bytes","name":"","type":"bytes"}],"name":"onERC721Received","outputs":[{"internalType":"bytes4","name":"","type":"bytes4"}],"stateMutability":"nonpayable","type":"function"},{"inputs":[{"internalType":"address","name":"_collection","type":"address"},{"internalType":"uint256","name":"_tokenID","type":"uint256"},{"internalType":"uint256","name":"_amount","type":"uint256"}],"name":"repay","outputs":[],"stateMutability":"nonpayable","type":"function"},{"inputs":[{"internalType":"address","name":"_buyer","type":"address"},{"internalType":"address","name":"_collection","type":"address"},{"internalType":"uint256","name":"_tokenID","type":"uint256"}],"name":"sellerCollateralNFT","outputs":[{"internalType":"address","name":"","type":"address"}],"stateMutability":"view","type":"function"},{"inputs":[{"internalType":"address","name":"_contract","type":"address"},{"internalType":"uint256","name":"tokenID","type":"uint256"}],"name":"stringer2","outputs":[{"internalType":"bytes","name":"","type":"bytes"}],"stateMutability":"view","type":"function"},{"inputs":[{"internalType":"address","name":"_buyer","type":"address"}],"name":"totalValueBorrowed","outputs":[{"internalType":"uint256","name":"","type":"uint256"}],"stateMutability":"view","type":"function"},{"inputs":[{"internalType":"address","name":"_buyer","type":"address"},{"internalType":"address","name":"_collection","type":"address"},{"internalType":"uint256","name":"_tokenID","type":"uint256"}],"name":"valueBorrowedOneNFT","outputs":[{"internalType":"uint256","name":"","type":"uint256"}],"stateMutability":"view","type":"function"}],"compiler":{"version":"0.8.11+commit.d7f03943","evm_version":"istanbul","optimizer":{"enabled":true,"runs":200}},"contractName":"Barter","language":"Solidity","natspec":{"methods":{"collateralizedPurchase(address,address,address,uint256,uint256)":{"notice":"function transfers ownership from buyer to this contract to be held as collateralbuyer will automaticall receive thier NFT back once they repay the item value","details":"the calling contract/function must approve the transfer to this contract address"},"exchangeNFT(address,address,address,uint256)":{"notice":"function transfers ownership from buyer to seller","details":"the calling contract/function must approve the transfer to the seller's address"},"repay(address,uint256,uint256)":{"notice":"buyer pays back what they owe in WETH only","details":"the calling contract/function must approve the transfer of ERC20 to the seller address"},"sellerCollateralNFT(address,address,uint256)":{"notice":"returns address of seller who has an NFT as collateral"},"valueBorrowedOneNFT(address,address,uint256)":{"notice":"returns value owed on 1 NFT used as collateral"},"handleDefault(address,address,uint256)":{"notice":"upon defualt, the store gets th NFT, and the user no longer owes money."},"totalValueBorrowed(address)":{"notice":"returns the total eth quantity owed by a user"}},"kind":"dev","version":1},"opcodes":"PUSH1 0x80 PUSH1 0x40 MSTORE CALLVALUE DUP1 ISZERO PUSH2 0x10 JUMPI PUSH1 0x0 DUP1 REVERT JUMPDEST POP PUSH1 0x4 CALLDATASIZE LT PUSH2 0xCF JUMPI PUSH1 0x0 CALLDATALOAD PUSH1 0xE0 SHR DUP1 PUSH4 0x8CD2E0C7 GT PUSH2 0x8C JUMPI DUP1 PUSH4 0xAD5C4648 GT PUSH2 0x66 JUMPI DUP1 PUSH4 0xAD5C4648 EQ PUSH2 0x298 JUMPI DUP1 PUSH4 0xF1076DA1 EQ PUSH2 0x2B3 JUMPI DUP1 PUSH4 0xF2DF757B EQ PUSH2 0x2FF JUMPI DUP1 PUSH4 0xF61556C8 EQ PUSH2 0x328 JUMPI PUSH1 0x0 DUP1 REVERT JUMPDEST DUP1 PUSH4 0x8CD2E0C7 EQ PUSH2 0x1C8 JUMPI DUP1 PUSH4 0x946CCFC0 EQ PUSH2 0x1DB JUMPI DUP1 PUSH4 0x9FED0300 EQ PUSH2 0x24A JUMPI PUSH1 0x0 DUP1 REVERT JUMPDEST DUP1 PUSH4 0xB1EEDB8 EQ PUSH2 0xD4 JUMPI DUP1 PUSH4 0x150B7A02 EQ PUSH2 0xE9 JUMPI DUP1 PUSH4 0x1E315FD6 EQ PUSH2 0x125 JUMPI DUP1 PUSH4 0x3A1657B4 EQ PUSH2 0x138 JUMPI DUP1 PUSH4 0x431AABC2 EQ PUSH2 0x195 JUMPI DUP1 PUSH4 0x617A19C0 EQ PUSH2 0x1B5 JUMPI JUMPDEST PUSH1 0x0 DUP1 REVERT JUMPDEST PUSH2 0xE7 PUSH2 0xE2 CALLDATASIZE PUSH1 0x4 PUSH2 0x96F JUMP JUMPDEST PUSH2 0x33B JUMP JUMPDEST STOP JUMPDEST PUSH2 0x107 PUSH2 0xF7 CALLDATASIZE PUSH1 0x4 PUSH2 0x9D0 JUMP JUMPDEST PUSH4 0xA85BD01 PUSH1 0xE1 SHL SWAP5 SWAP4 POP POP POP POP JUMP JUMPDEST PUSH1 0x40 MLOAD PUSH1 0x1 PUSH1 0x1 PUSH1 0xE0 SHL SUB NOT SWAP1 SWAP2 AND DUP2 MSTORE PUSH1 0x20 ADD JUMPDEST PUSH1 0x40 MLOAD DUP1 SWAP2 SUB SWAP1 RETURN JUMPDEST PUSH2 0xE7 PUSH2 0x133 CALLDATASIZE PUSH1 0x4 PUSH2 0xAAC JUMP JUMPDEST PUSH2 0x3A3 JUMP JUMPDEST PUSH2 0x17D PUSH2 0x146 CALLDATASIZE PUSH1 0x4 PUSH2 0xAAC JUMP JUMPDEST PUSH1 0x1 PUSH1 0x1 PUSH1 0xA0 SHL SUB SWAP3 DUP4 AND PUSH1 0x0 SWAP1 DUP2 MSTORE PUSH1 0x1 PUSH1 0x20 SWAP1 DUP2 MSTORE PUSH1 0x40 DUP1 DUP4 KECCAK256 SWAP5 DUP7 AND DUP4 MSTORE SWAP4 DUP2 MSTORE DUP4 DUP3 KECCAK256 SWAP3 DUP3 MSTORE SWAP2 SWAP1 SWAP2 MSTORE KECCAK256 PUSH1 0x2 ADD SLOAD AND SWAP1 JUMP JUMPDEST PUSH1 0x40 MLOAD PUSH1 0x1 PUSH1 0x1 PUSH1 0xA0 SHL SUB SWAP1 SWAP2 AND DUP2 MSTORE PUSH1 0x20 ADD PUSH2 0x11C JUMP JUMPDEST PUSH2 0x1A8 PUSH2 0x1A3 CALLDATASIZE PUSH1 0x4 PUSH2 0xAE8 JUMP JUMPDEST PUSH2 0x467 JUMP JUMPDEST PUSH1 0x40 MLOAD PUSH2 0x11C SWAP2 SWAP1 PUSH2 0xB01 JUMP JUMPDEST PUSH2 0xE7 PUSH2 0x1C3 CALLDATASIZE PUSH1 0x4 PUSH2 0xB56 JUMP JUMPDEST PUSH2 0x492 JUMP JUMPDEST PUSH2 0xE7 PUSH2 0x1D6 CALLDATASIZE PUSH1 0x4 PUSH2 0xBAB JUMP JUMPDEST PUSH2 0x636 JUMP JUMPDEST PUSH2 0x225 PUSH2 0x1E9 CALLDATASIZE PUSH1 0x4 PUSH2 0xAAC JUMP JUMPDEST PUSH1 0x1 PUSH1 0x20 DUP2 DUP2 MSTORE PUSH1 0x0 SWAP5 DUP6 MSTORE PUSH1 0x40 DUP1 DUP7 KECCAK256 DUP3 MSTORE SWAP4 DUP6 MSTORE DUP4 DUP6 KECCAK256 SWAP1 MSTORE SWAP1 DUP4 MSTORE SWAP2 KECCAK256 DUP1 SLOAD SWAP2 DUP2 ADD SLOAD PUSH1 0x2 SWAP1 SWAP2 ADD SLOAD PUSH1 0x1 PUSH1 0x1 PUSH1 0xA0 SHL SUB SWAP2 DUP3 AND SWAP2 AND DUP4 JUMP JUMPDEST PUSH1 0x40 DUP1 MLOAD SWAP4 DUP5 MSTORE PUSH1 0x1 PUSH1 0x1 PUSH1 0xA0 SHL SUB SWAP3 DUP4 AND PUSH1 0x20 DUP6 ADD MSTORE SWAP2 AND SWAP1 DUP3 ADD MSTORE PUSH1 0x60 ADD PUSH2 0x11C JUMP JUMPDEST PUSH2 0x28A PUSH2 0x258 CALLDATASIZE PUSH1 0x4 PUSH2 0xAAC JUMP JUMPDEST PUSH1 0x1 PUSH1 0x1 PUSH1 0xA0 SHL SUB SWAP3 DUP4 AND PUSH1 0x0 SWAP1 DUP2 MSTORE PUSH1 0x1 PUSH1 0x20 SWAP1 DUP2 MSTORE PUSH1 0x40 DUP1 DUP4 KECCAK256 SWAP5 SWAP1 SWAP6 AND DUP3 MSTORE SWAP3 DUP4 MSTORE DUP4 DUP2 KECCAK256 SWAP2 DUP2 MSTORE SWAP2 MSTORE KECCAK256 SLOAD SWAP1 JUMP JUMPDEST PUSH1 0x40 MLOAD SWAP1 DUP2 MSTORE PUSH1 0x20 ADD PUSH2 0x11C JUMP JUMPDEST PUSH2 0x17D PUSH20 0xC778417E063141139FCE010982780140AA0CD5AB DUP2 JUMP JUMPDEST PUSH2 0x1A8 PUSH2 0x2C1 CALLDATASIZE PUSH1 0x4 PUSH2 0xBDE JUMP JUMPDEST PUSH1 0x40 MLOAD PUSH1 0x60 DUP4 DUP2 SHL PUSH12 0xFFFFFFFFFFFFFFFFFFFFFFFF NOT AND PUSH1 0x20 DUP4 ADD MSTORE PUSH1 0x34 DUP3 ADD DUP4 SWAP1 MSTORE SWAP1 PUSH1 0x54 ADD PUSH1 0x40 MLOAD PUSH1 0x20 DUP2 DUP4 SUB SUB DUP2 MSTORE SWAP1 PUSH1 0x40 MSTORE SWAP1 POP SWAP3 SWAP2 POP POP JUMP JUMPDEST PUSH2 0x28A PUSH2 0x30D CALLDATASIZE PUSH1 0x4 PUSH2 0xC08 JUMP JUMPDEST PUSH1 0x1 PUSH1 0x1 PUSH1 0xA0 SHL SUB AND PUSH1 0x0 SWAP1 DUP2 MSTORE PUSH1 0x20 DUP2 SWAP1 MSTORE PUSH1 0x40 SWAP1 KECCAK256 SLOAD SWAP1 JUMP JUMPDEST PUSH2 0xE7 PUSH2 0x336 CALLDATASIZE PUSH1 0x4 PUSH2 0xBDE JUMP JUMPDEST PUSH2 0x8ED JUMP JUMPDEST PUSH1 0x40 MLOAD PUSH4 0x21421707 PUSH1 0xE1 SHL DUP2 MSTORE PUSH1 0x1 PUSH1 0x1 PUSH1 0xA0 SHL SUB DUP4 AND SWAP1 PUSH4 0x42842E0E SWAP1 PUSH2 0x36B SWAP1 DUP8 SWAP1 DUP8 SWAP1 DUP7 SWAP1 PUSH1 0x4 ADD PUSH2 0xC2A JUMP JUMPDEST PUSH1 0x0 PUSH1 0x40 MLOAD DUP1 DUP4 SUB DUP2 PUSH1 0x0 DUP8 DUP1 EXTCODESIZE ISZERO DUP1 ISZERO PUSH2 0x385 JUMPI PUSH1 0x0 DUP1 REVERT JUMPDEST POP GAS CALL ISZERO DUP1 ISZERO PUSH2 0x399 JUMPI RETURNDATASIZE PUSH1 0x0 DUP1 RETURNDATACOPY RETURNDATASIZE PUSH1 0x0 REVERT JUMPDEST POP POP POP POP POP POP POP POP JUMP JUMPDEST PUSH1 0x1 PUSH1 0x1 PUSH1 0xA0 SHL SUB DUP4 DUP2 AND PUSH1 0x0 SWAP1 DUP2 MSTORE PUSH1 0x1 PUSH1 0x20 SWAP1 DUP2 MSTORE PUSH1 0x40 DUP1 DUP4 KECCAK256 DUP5 DUP8 AND DUP1 DUP6 MSTORE SWAP1 DUP4 MSTORE DUP2 DUP5 KECCAK256 DUP7 DUP6 MSTORE SWAP1 SWAP3 MSTORE SWAP2 DUP3 SWAP1 KECCAK256 PUSH1 0x2 ADD SLOAD SWAP2 MLOAD PUSH4 0x21421707 PUSH1 0xE1 SHL DUP2 MSTORE SWAP1 SWAP3 PUSH4 0x42842E0E SWAP3 PUSH2 0x402 SWAP3 ADDRESS SWAP3 SWAP2 SWAP1 SWAP2 AND SWAP1 DUP7 SWAP1 PUSH1 0x4 ADD PUSH2 0xC2A JUMP JUMPDEST PUSH1 0x0 PUSH1 0x40 MLOAD DUP1 DUP4 SUB DUP2 PUSH1 0x0 DUP8 DUP1 EXTCODESIZE ISZERO DUP1 ISZERO PUSH2 0x41C JUMPI PUSH1 0x0 DUP1 REVERT JUMPDEST POP GAS CALL ISZERO DUP1 ISZERO PUSH2 0x430 JUMPI RETURNDATASIZE PUSH1 0x0 DUP1 RETURNDATACOPY RETURNDATASIZE PUSH1 0x0 REVERT JUMPDEST POP POP POP POP PUSH1 0x1 PUSH1 0x1 PUSH1 0xA0 SHL SUB SWAP3 DUP4 AND PUSH1 0x0 SWAP1 DUP2 MSTORE PUSH1 0x1 PUSH1 0x20 SWAP1 DUP2 MSTORE PUSH1 0x40 DUP1 DUP4 KECCAK256 SWAP5 SWAP1 SWAP6 AND DUP3 MSTORE SWAP3 DUP4 MSTORE DUP4 DUP2 KECCAK256 SWAP2 DUP2 MSTORE SWAP2 MSTORE SWAP1 DUP2 KECCAK256 SSTORE JUMP JUMPDEST PUSH1 0x60 DUP2 PUSH1 0x40 MLOAD PUSH1 0x20 ADD PUSH2 0x47C SWAP2 DUP2 MSTORE PUSH1 0x20 ADD SWAP1 JUMP JUMPDEST PUSH1 0x40 MLOAD PUSH1 0x20 DUP2 DUP4 SUB SUB DUP2 MSTORE SWAP1 PUSH1 0x40 MSTORE SWAP1 POP SWAP2 SWAP1 POP JUMP JUMPDEST PUSH1 0x1 PUSH1 0x1 PUSH1 0xA0 SHL SUB DUP6 DUP2 AND PUSH1 0x0 SWAP1 DUP2 MSTORE PUSH1 0x1 PUSH1 0x20 SWAP1 DUP2 MSTORE PUSH1 0x40 DUP1 DUP4 KECCAK256 DUP8 DUP6 AND DUP5 MSTORE DUP3 MSTORE DUP1 DUP4 KECCAK256 DUP7 DUP5 MSTORE SWAP1 SWAP2 MSTORE SWAP1 KECCAK256 PUSH1 0x2 ADD SLOAD DUP2 AND SWAP1 DUP6 AND EQ PUSH2 0x506 JUMPI PUSH1 0x1 PUSH1 0x1 PUSH1 0xA0 SHL SUB DUP1 DUP7 AND PUSH1 0x0 SWAP1 DUP2 MSTORE PUSH1 0x1 PUSH1 0x20 SWAP1 DUP2 MSTORE PUSH1 0x40 DUP1 DUP4 KECCAK256 SWAP4 DUP8 AND DUP4 MSTORE SWAP3 DUP2 MSTORE DUP3 DUP3 KECCAK256 DUP6 DUP4 MSTORE SWAP1 MSTORE KECCAK256 SLOAD ISZERO PUSH2 0x506 JUMPI PUSH1 0x0 DUP1 REVERT JUMPDEST PUSH1 0x40 MLOAD PUSH4 0x21421707 PUSH1 0xE1 SHL DUP2 MSTORE PUSH1 0x1 PUSH1 0x1 PUSH1 0xA0 SHL SUB DUP5 AND SWAP1 PUSH4 0x42842E0E SWAP1 PUSH2 0x536 SWAP1 DUP9 SWAP1 ADDRESS SWAP1 DUP8 SWAP1 PUSH1 0x4 ADD PUSH2 0xC2A JUMP JUMPDEST PUSH1 0x0 PUSH1 0x40 MLOAD DUP1 DUP4 SUB DUP2 PUSH1 0x0 DUP8 DUP1 EXTCODESIZE ISZERO DUP1 ISZERO PUSH2 0x550 JUMPI PUSH1 0x0 DUP1 REVERT JUMPDEST POP GAS CALL ISZERO DUP1 ISZERO PUSH2 0x564 JUMPI RETURNDATASIZE PUSH1 0x0 DUP1 RETURNDATACOPY RETURNDATASIZE PUSH1 0x0 REVERT JUMPDEST POP POP POP POP PUSH1 0x1 PUSH1 0x1 PUSH1 0xA0 SHL SUB DUP6 DUP2 AND PUSH1 0x0 SWAP1 DUP2 MSTORE PUSH1 0x1 PUSH1 0x20 SWAP1 DUP2 MSTORE PUSH1 0x40 DUP1 DUP4 KECCAK256 SWAP4 DUP8 AND DUP4 MSTORE SWAP3 DUP2 MSTORE DUP3 DUP3 KECCAK256 DUP6 DUP4 MSTORE SWAP1 MSTORE SWAP1 DUP2 KECCAK256 DUP1 SLOAD DUP4 SWAP3 SWAP1 PUSH2 0x5A7 SWAP1 DUP5 SWAP1 PUSH2 0xC64 JUMP JUMPDEST SWAP1 SWAP2 SSTORE POP POP PUSH1 0x1 PUSH1 0x1 PUSH1 0xA0 SHL SUB DUP6 AND PUSH1 0x0 SWAP1 DUP2 MSTORE PUSH1 0x20 DUP2 SWAP1 MSTORE PUSH1 0x40 DUP2 KECCAK256 DUP1 SLOAD DUP4 SWAP3 SWAP1 PUSH2 0x5D4 SWAP1 DUP5 SWAP1 PUSH2 0xC64 JUMP JUMPDEST SWAP1 SWAP2 SSTORE POP POP POP PUSH1 0x1 PUSH1 0x1 PUSH1 0xA0 SHL SUB SWAP4 DUP5 AND PUSH1 0x0 DUP2 DUP2 MSTORE PUSH1 0x1 PUSH1 0x20 DUP2 DUP2 MSTORE PUSH1 0x40 DUP1 DUP5 KECCAK256 SWAP7 DUP10 AND DUP5 MSTORE SWAP6 DUP2 MSTORE DUP6 DUP4 KECCAK256 SWAP5 DUP4 MSTORE SWAP4 SWAP1 SWAP4 MSTORE SWAP3 SWAP1 SWAP3 KECCAK256 PUSH1 0x2 DUP2 ADD DUP1 SLOAD SWAP5 SWAP1 SWAP6 AND PUSH1 0x1 PUSH1 0x1 PUSH1 0xA0 SHL SUB NOT SWAP5 DUP6 AND OR SWAP1 SWAP5 SSTORE SWAP3 SWAP1 SWAP3 ADD DUP1 SLOAD SWAP1 SWAP2 AND SWAP1 SWAP2 OR SWAP1 SSTORE JUMP JUMPDEST PUSH1 0x40 MLOAD PUSH4 0x70A08231 PUSH1 0xE0 SHL DUP2 MSTORE CALLER PUSH1 0x4 DUP3 ADD MSTORE DUP2 SWAP1 PUSH20 0xC778417E063141139FCE010982780140AA0CD5AB SWAP1 PUSH4 0x70A08231 SWAP1 PUSH1 0x24 ADD PUSH1 0x20 PUSH1 0x40 MLOAD DUP1 DUP4 SUB DUP2 DUP7 GAS STATICCALL ISZERO DUP1 ISZERO PUSH2 0x687 JUMPI RETURNDATASIZE PUSH1 0x0 DUP1 RETURNDATACOPY RETURNDATASIZE PUSH1 0x0 REVERT JUMPDEST POP POP POP POP PUSH1 0x40 MLOAD RETURNDATASIZE PUSH1 0x1F NOT PUSH1 0x1F DUP3 ADD AND DUP3 ADD DUP1 PUSH1 0x40 MSTORE POP DUP2 ADD SWAP1 PUSH2 0x6AB SWAP2 SWAP1 PUSH2 0xC7C JUMP JUMPDEST LT ISZERO PUSH2 0x6B6 JUMPI PUSH1 0x0 DUP1 REVERT JUMPDEST CALLER PUSH1 0x0 SWAP1 DUP2 MSTORE PUSH1 0x1 PUSH1 0x20 SWAP1 DUP2 MSTORE PUSH1 0x40 DUP1 DUP4 KECCAK256 PUSH1 0x1 PUSH1 0x1 PUSH1 0xA0 SHL SUB DUP8 AND DUP5 MSTORE DUP3 MSTORE DUP1 DUP4 KECCAK256 DUP6 DUP5 MSTORE SWAP1 SWAP2 MSTORE SWAP1 KECCAK256 SLOAD DUP2 GT ISZERO PUSH2 0x73F JUMPI PUSH1 0x40 MLOAD PUSH3 0x461BCD PUSH1 0xE5 SHL DUP2 MSTORE PUSH1 0x20 PUSH1 0x4 DUP3 ADD MSTORE PUSH1 0x21 PUSH1 0x24 DUP3 ADD MSTORE PUSH32 0x43616E6E6F7420706179206261636B206D6F7265207468616E20796F75206F77 PUSH1 0x44 DUP3 ADD MSTORE PUSH1 0x65 PUSH1 0xF8 SHL PUSH1 0x64 DUP3 ADD MSTORE PUSH1 0x84 ADD PUSH1 0x40 MLOAD DUP1 SWAP2 SUB SWAP1 REVERT JUMPDEST CALLER PUSH1 0x0 DUP2 DUP2 MSTORE PUSH1 0x1 PUSH1 0x20 SWAP1 DUP2 MSTORE PUSH1 0x40 DUP1 DUP4 KECCAK256 PUSH1 0x1 PUSH1 0x1 PUSH1 0xA0 SHL SUB DUP9 DUP2 AND DUP6 MSTORE SWAP1 DUP4 MSTORE DUP2 DUP5 KECCAK256 DUP8 DUP6 MSTORE SWAP1 SWAP3 MSTORE SWAP2 DUP3 SWAP1 KECCAK256 PUSH1 0x2 ADD SLOAD SWAP2 MLOAD PUSH4 0x23B872DD PUSH1 0xE0 SHL DUP2 MSTORE PUSH20 0xC778417E063141139FCE010982780140AA0CD5AB SWAP4 PUSH4 0x23B872DD SWAP4 PUSH2 0x7AD SWAP4 SWAP2 SWAP3 SWAP2 AND SWAP1 DUP7 SWAP1 PUSH1 0x4 ADD PUSH2 0xC2A JUMP JUMPDEST PUSH1 0x20 PUSH1 0x40 MLOAD DUP1 DUP4 SUB DUP2 PUSH1 0x0 DUP8 GAS CALL ISZERO DUP1 ISZERO PUSH2 0x7CC JUMPI RETURNDATASIZE PUSH1 0x0 DUP1 RETURNDATACOPY RETURNDATASIZE PUSH1 0x0 REVERT JUMPDEST POP POP POP POP PUSH1 0x40 MLOAD RETURNDATASIZE PUSH1 0x1F NOT PUSH1 0x1F DUP3 ADD AND DUP3 ADD DUP1 PUSH1 0x40 MSTORE POP DUP2 ADD SWAP1 PUSH2 0x7F0 SWAP2 SWAP1 PUSH2 0xC95 JUMP JUMPDEST POP CALLER PUSH1 0x0 SWAP1 DUP2 MSTORE PUSH1 0x1 PUSH1 0x20 SWAP1 DUP2 MSTORE PUSH1 0x40 DUP1 DUP4 KECCAK256 PUSH1 0x1 PUSH1 0x1 PUSH1 0xA0 SHL SUB DUP8 AND DUP5 MSTORE DUP3 MSTORE DUP1 DUP4 KECCAK256 DUP6 DUP5 MSTORE SWAP1 SWAP2 MSTORE DUP2 KECCAK256 DUP1 SLOAD DUP4 SWAP3 SWAP1 PUSH2 0x82C SWAP1 DUP5 SWAP1 PUSH2 0xCB7 JUMP JUMPDEST SWAP1 SWAP2 SSTORE POP POP CALLER PUSH1 0x0 SWAP1 DUP2 MSTORE PUSH1 0x20 DUP2 SWAP1 MSTORE PUSH1 0x40 DUP2 KECCAK256 DUP1 SLOAD DUP4 SWAP3 SWAP1 PUSH2 0x850 SWAP1 DUP5 SWAP1 PUSH2 0xCB7 JUMP JUMPDEST SWAP1 SWAP2 SSTORE POP POP CALLER PUSH1 0x0 SWAP1 DUP2 MSTORE PUSH1 0x1 PUSH1 0x20 SWAP1 DUP2 MSTORE PUSH1 0x40 DUP1 DUP4 KECCAK256 PUSH1 0x1 PUSH1 0x1 PUSH1 0xA0 SHL SUB DUP8 AND DUP5 MSTORE DUP3 MSTORE DUP1 DUP4 KECCAK256 DUP6 DUP5 MSTORE SWAP1 SWAP2 MSTORE SWAP1 KECCAK256 SLOAD PUSH2 0x8E8 JUMPI PUSH1 0x40 MLOAD PUSH4 0x21421707 PUSH1 0xE1 SHL DUP2 MSTORE PUSH1 0x1 PUSH1 0x1 PUSH1 0xA0 SHL SUB DUP5 AND SWAP1 PUSH4 0x42842E0E SWAP1 PUSH2 0x8B5 SWAP1 ADDRESS SWAP1 CALLER SWAP1 DUP8 SWAP1 PUSH1 0x4 ADD PUSH2 0xC2A JUMP JUMPDEST PUSH1 0x0 PUSH1 0x40 MLOAD DUP1 DUP4 SUB DUP2 PUSH1 0x0 DUP8 DUP1 EXTCODESIZE ISZERO DUP1 ISZERO PUSH2 0x8CF JUMPI PUSH1 0x0 DUP1 REVERT JUMPDEST POP GAS CALL ISZERO DUP1 ISZERO PUSH2 0x8E3 JUMPI RETURNDATASIZE PUSH1 0x0 DUP1 RETURNDATACOPY RETURNDATASIZE PUSH1 0x0 REVERT JUMPDEST POP POP POP POP JUMPDEST POP POP POP JUMP JUMPDEST PUSH1 0x40 MLOAD PUSH4 0x21421707 PUSH1 0xE1 SHL DUP2 MSTORE PUSH1 0x1 PUSH1 0x1 PUSH1 0xA0 SHL SUB DUP4 AND SWAP1 PUSH4 0x42842E0E SWAP1 PUSH2 0x91D SWAP1 ADDRESS SWAP1 CALLER SWAP1 DUP7 SWAP1 PUSH1 0x4 ADD PUSH2 0xC2A JUMP JUMPDEST PUSH1 0x0 PUSH1 0x40 MLOAD DUP1 DUP4 SUB DUP2 PUSH1 0x0 DUP8 DUP1 EXTCODESIZE ISZERO DUP1 ISZERO PUSH2 0x937 JUMPI PUSH1 0x0 DUP1 REVERT JUMPDEST POP GAS CALL ISZERO DUP1 ISZERO PUSH2 0x94B JUMPI RETURNDATASIZE PUSH1 0x0 DUP1 RETURNDATACOPY RETURNDATASIZE PUSH1 0x0 REVERT JUMPDEST POP POP POP POP POP POP JUMP JUMPDEST DUP1 CALLDATALOAD PUSH1 0x1 PUSH1 0x1 PUSH1 0xA0 SHL SUB DUP2 AND DUP2 EQ PUSH2 0x96A JUMPI PUSH1 0x0 DUP1 REVERT JUMPDEST SWAP2 SWAP1 POP JUMP JUMPDEST PUSH1 0x0 DUP1 PUSH1 0x0 DUP1 PUSH1 0x80 DUP6 DUP8 SUB SLT ISZERO PUSH2 0x985 JUMPI PUSH1 0x0 DUP1 REVERT JUMPDEST PUSH2 0x98E DUP6 PUSH2 0x953 JUMP JUMPDEST SWAP4 POP PUSH2 0x99C PUSH1 0x20 DUP7 ADD PUSH2 0x953 JUMP JUMPDEST SWAP3 POP PUSH2 0x9AA PUSH1 0x40 DUP7 ADD PUSH2 0x953 JUMP JUMPDEST SWAP4 SWAP7 SWAP3 SWAP6 POP SWAP3 SWAP4 PUSH1 0x60 ADD CALLDATALOAD SWAP3 POP POP JUMP JUMPDEST PUSH4 0x4E487B71 PUSH1 0xE0 SHL PUSH1 0x0 MSTORE PUSH1 0x41 PUSH1 0x4 MSTORE PUSH1 0x24 PUSH1 0x0 REVERT JUMPDEST PUSH1 0x0 DUP1 PUSH1 0x0 DUP1 PUSH1 0x80 DUP6 DUP8 SUB SLT ISZERO PUSH2 0x9E6 JUMPI PUSH1 0x0 DUP1 REVERT JUMPDEST PUSH2 0x9EF DUP6 PUSH2 0x953 JUMP JUMPDEST SWAP4 POP PUSH2 0x9FD PUSH1 0x20 DUP7 ADD PUSH2 0x953 JUMP JUMPDEST SWAP3 POP PUSH1 0x40 DUP6 ADD CALLDATALOAD SWAP2 POP PUSH1 0x60 DUP6 ADD CALLDATALOAD PUSH8 0xFFFFFFFFFFFFFFFF DUP1 DUP3 GT ISZERO PUSH2 0xA21 JUMPI PUSH1 0x0 DUP1 REVERT JUMPDEST DUP2 DUP8 ADD SWAP2 POP DUP8 PUSH1 0x1F DUP4 ADD SLT PUSH2 0xA35 JUMPI PUSH1 0x0 DUP1 REVERT JUMPDEST DUP2 CALLDATALOAD DUP2 DUP2 GT ISZERO PUSH2 0xA47 JUMPI PUSH2 0xA47 PUSH2 0x9BA JUMP JUMPDEST PUSH1 0x40 MLOAD PUSH1 0x1F DUP3 ADD PUSH1 0x1F NOT SWAP1 DUP2 AND PUSH1 0x3F ADD AND DUP2 ADD SWAP1 DUP4 DUP3 GT DUP2 DUP4 LT OR ISZERO PUSH2 0xA6F JUMPI PUSH2 0xA6F PUSH2 0x9BA JUMP JUMPDEST DUP2 PUSH1 0x40 MSTORE DUP3 DUP2 MSTORE DUP11 PUSH1 0x20 DUP5 DUP8 ADD ADD GT ISZERO PUSH2 0xA88 JUMPI PUSH1 0x0 DUP1 REVERT JUMPDEST DUP3 PUSH1 0x20 DUP7 ADD PUSH1 0x20 DUP4 ADD CALLDATACOPY PUSH1 0x0 PUSH1 0x20 DUP5 DUP4 ADD ADD MSTORE DUP1 SWAP6 POP POP POP POP POP POP SWAP3 SWAP6 SWAP2 SWAP5 POP SWAP3 POP JUMP JUMPDEST PUSH1 0x0 DUP1 PUSH1 0x0 PUSH1 0x60 DUP5 DUP7 SUB SLT ISZERO PUSH2 0xAC1 JUMPI PUSH1 0x0 DUP1 REVERT JUMPDEST PUSH2 0xACA DUP5 PUSH2 0x953 JUMP JUMPDEST SWAP3 POP PUSH2 0xAD8 PUSH1 0x20 DUP6 ADD PUSH2 0x953 JUMP JUMPDEST SWAP2 POP PUSH1 0x40 DUP5 ADD CALLDATALOAD SWAP1 POP SWAP3 POP SWAP3 POP SWAP3 JUMP JUMPDEST PUSH1 0x0 PUSH1 0x20 DUP3 DUP5 SUB SLT ISZERO PUSH2 0xAFA JUMPI PUSH1 0x0 DUP1 REVERT JUMPDEST POP CALLDATALOAD SWAP2 SWAP1 POP JUMP JUMPDEST PUSH1 0x0 PUSH1 0x20 DUP1 DUP4 MSTORE DUP4 MLOAD DUP1 DUP3 DUP6 ADD MSTORE PUSH1 0x0 JUMPDEST DUP2 DUP2 LT ISZERO PUSH2 0xB2E JUMPI DUP6 DUP2 ADD DUP4 ADD MLOAD DUP6 DUP3 ADD PUSH1 0x40 ADD MSTORE DUP3 ADD PUSH2 0xB12 JUMP JUMPDEST DUP2 DUP2 GT ISZERO PUSH2 0xB40 JUMPI PUSH1 0x0 PUSH1 0x40 DUP4 DUP8 ADD ADD MSTORE JUMPDEST POP PUSH1 0x1F ADD PUSH1 0x1F NOT AND SWAP3 SWAP1 SWAP3 ADD PUSH1 0x40 ADD SWAP4 SWAP3 POP POP POP JUMP JUMPDEST PUSH1 0x0 DUP1 PUSH1 0x0 DUP1 PUSH1 0x0 PUSH1 0xA0 DUP7 DUP9 SUB SLT ISZERO PUSH2 0xB6E JUMPI PUSH1 0x0 DUP1 REVERT JUMPDEST PUSH2 0xB77 DUP7 PUSH2 0x953 JUMP JUMPDEST SWAP5 POP PUSH2 0xB85 PUSH1 0x20 DUP8 ADD PUSH2 0x953 JUMP JUMPDEST SWAP4 POP PUSH2 0xB93 PUSH1 0x40 DUP8 ADD PUSH2 0x953 JUMP JUMPDEST SWAP5 SWAP8 SWAP4 SWAP7 POP SWAP4 SWAP5 PUSH1 0x60 DUP2 ADD CALLDATALOAD SWAP5 POP PUSH1 0x80 ADD CALLDATALOAD SWAP3 SWAP2 POP POP JUMP JUMPDEST PUSH1 0x0 DUP1 PUSH1 0x0 PUSH1 0x60 DUP5 DUP7 SUB SLT ISZERO PUSH2 0xBC0 JUMPI PUSH1 0x0 DUP1 REVERT JUMPDEST PUSH2 0xBC9 DUP5 PUSH2 0x953 JUMP JUMPDEST SWAP6 PUSH1 0x20 DUP6 ADD CALLDATALOAD SWAP6 POP PUSH1 0x40 SWAP1 SWAP5 ADD CALLDATALOAD SWAP4 SWAP3 POP POP POP JUMP JUMPDEST PUSH1 0x0 DUP1 PUSH1 0x40 DUP4 DUP6 SUB SLT ISZERO PUSH2 0xBF1 JUMPI PUSH1 0x0 DUP1 REVERT JUMPDEST PUSH2 0xBFA DUP4 PUSH2 0x953 JUMP JUMPDEST SWAP5 PUSH1 0x20 SWAP4 SWAP1 SWAP4 ADD CALLDATALOAD SWAP4 POP POP POP JUMP JUMPDEST PUSH1 0x0 PUSH1 0x20 DUP3 DUP5 SUB SLT ISZERO PUSH2 0xC1A JUMPI PUSH1 0x0 DUP1 REVERT JUMPDEST PUSH2 0xC23 DUP3 PUSH2 0x953 JUMP JUMPDEST SWAP4 SWAP3 POP POP POP JUMP JUMPDEST PUSH1 0x1 PUSH1 0x1 PUSH1 0xA0 SHL SUB SWAP4 DUP5 AND DUP2 MSTORE SWAP2 SWAP1 SWAP3 AND PUSH1 0x20 DUP3 ADD MSTORE PUSH1 0x40 DUP2 ADD SWAP2 SWAP1 SWAP2 MSTORE PUSH1 0x60 ADD SWAP1 JUMP JUMPDEST PUSH4 0x4E487B71 PUSH1 0xE0 SHL PUSH1 0x0 MSTORE PUSH1 0x11 PUSH1 0x4 MSTORE PUSH1 0x24 PUSH1 0x0 REVERT JUMPDEST PUSH1 0x0 DUP3 NOT DUP3 GT ISZERO PUSH2 0xC77 JUMPI PUSH2 0xC77 PUSH2 0xC4E JUMP JUMPDEST POP ADD SWAP1 JUMP JUMPDEST PUSH1 0x0 PUSH1 0x20 DUP3 DUP5 SUB SLT ISZERO PUSH2 0xC8E JUMPI PUSH1 0x0 DUP1 REVERT JUMPDEST POP MLOAD SWAP2 SWAP1 POP JUMP JUMPDEST PUSH1 0x0 PUSH1 0x20 DUP3 DUP5 SUB SLT ISZERO PUSH2 0xCA7 JUMPI PUSH1 0x0 DUP1 REVERT JUMPDEST DUP2 MLOAD DUP1 ISZERO ISZERO DUP2 EQ PUSH2 0xC23 JUMPI PUSH1 0x0 DUP1 REVERT JUMPDEST PUSH1 0x0 DUP3 DUP3 LT ISZERO PUSH2 0xCC9 JUMPI PUSH2 0xCC9 PUSH2 0xC4E JUMP JUMPDEST POP SUB SWAP1 JUMP INVALID LOG2 PUSH5 0x6970667358 0x22 SLT KECCAK256 0xBF 0xE3 DUP11 0xE8 SELFDESTRUCT 0x5C JUMPI 0xC PUSH1 0x37 LOG3 ADDMOD STATICCALL 0xC9 NUMBER PUSH24 0xAF23219E1CD53D7CDE5C3D5D13F5490A64736F6C63430008 SIGNEXTEND STOP CALLER ","sha1":"c0bde5248dd25ea1d39e0582f8ce6775fdd1e278","source":"//SPDX-License-Identifier: MIT\n\npragma solidity ^0.8.0;\n\nimport \"@openzeppelin/contracts/token/ERC721/IERC721.sol\";\nimport \"@openzeppelin/contracts/token/ERC20/IERC20.sol\";\nimport \"@openzeppelin/contracts/token/ERC721/IERC721Receiver.sol\";\n//import \"@openzeppelin/contracts/utils/Strings.sol\";\n\nimport \"./Math.sol\";\n\ncontract Barter is IERC721Receiver {\n    using Math for uint256;\n\n    // struct for what each person owes, specific to what they bought\n    struct userBorrow {\n        uint256 amountOwed;\n        address buyer;\n        address seller;\n    }\n\n    mapping(address => uint256) totalborrowedETH;\n\n    // mapping: buyer -> NFT Contract => tokenID -> struct(money owed, buyer, seller)\n    mapping(address => mapping(address => mapping(uint256 => userBorrow)))\n        public loanTracker;\n    // will have to handle multiple purchases\n\n    address public constant WETH = 0xc778417E063141139Fce010982780140Aa0cD5Ab;\n\n    address owner;\n\n    constructor() {\n        owner = msg.sender;\n    }\n\n    ///@notice function transfers ownership from buyer to seller\n    ///@dev the calling contract/function must approve the transfer to the seller's address\n    function exchangeNFT(\n        address _buyer,\n        address _seller,\n        address _collection,\n        uint256 _tokenID\n    ) public {\n        IERC721(_collection).safeTransferFrom(_buyer, _seller, _tokenID);\n    }\n\n    ///@notice function transfers ownership from buyer to this contract to be held as collateral\n    ///@notice buyer will automaticall receive thier NFT back once they repay the item value\n    ///@dev the calling contract/function must approve the transfer to this contract address\n\n    // backend should check to see if there is enough collateral value, it will also allow user to buy multiple items against one NFT\n    function collateralizedPurchase(\n        address _buyer,\n        address _seller,\n        address _collection,\n        uint256 _tokenID,\n        uint256 _itemValue\n    ) public {\n        //if they purchsed from new seller with same NFT, they must have payed off thier old debts\n        if (loanTracker[_buyer][_collection][_tokenID].seller != _seller) {\n            require(loanTracker[_buyer][_collection][_tokenID].amountOwed == 0);\n        }\n\n        IERC721(_collection).safeTransferFrom(_buyer, address(this), _tokenID);\n\n        loanTracker[_buyer][_collection][_tokenID].amountOwed += _itemValue;\n        totalborrowedETH[_buyer] += _itemValue;\n        loanTracker[_buyer][_collection][_tokenID].seller = _seller;\n        //redundant?\n        loanTracker[_buyer][_collection][_tokenID].buyer = _buyer;\n    }\n\n    ///@notice buyer pays back what they owe in WETH only\n    ///@dev the calling contract/function must approve the transfer of ERC20 to the seller address\n    function repay(\n        address _collection,\n        uint256 _tokenID,\n        uint256 _amount\n    ) public {\n        //make sure user has enough WETH\n        require(IERC20(WETH).balanceOf(msg.sender) >= _amount);\n        //could use address _buyer\n        require(\n            loanTracker[msg.sender][_collection][_tokenID].amountOwed >=\n                _amount,\n            \"Cannot pay back more than you owe\"\n        );\n\n        IERC20(WETH).transferFrom(\n            msg.sender,\n            loanTracker[msg.sender][_collection][_tokenID].seller,\n            _amount\n        );\n\n        loanTracker[msg.sender][_collection][_tokenID].amountOwed -= _amount; //minimum( _amount, loanTracker[_buyer][_collection][_tokenID].amountOwed)\n        totalborrowedETH[msg.sender] -= _amount;\n\n        //send NFT if debt is paid\n        if (loanTracker[msg.sender][_collection][_tokenID].amountOwed == 0) {\n            IERC721(_collection).safeTransferFrom(\n                address(this),\n                msg.sender,\n                _tokenID\n            );\n        }\n    }\n\n    ///@notice upon defualt, the store gets th NFT, and the user no longer owes money.\n    function handleDefault(\n        address _buyer,\n        address _collection,\n        uint256 _tokenID\n    ) public {\n        IERC721(_collection).safeTransferFrom(\n            address(this),\n            loanTracker[_buyer][_collection][_tokenID].seller,\n            _tokenID\n        );\n        loanTracker[_buyer][_collection][_tokenID].amountOwed = 0;\n        //delete mapping? or set buyer/seller to zero address?\n    }\n\n    // function onERC721Received(\n    //     address,\n    //     address,\n    //     uint256,\n    //     bytes calldata\n    // ) external returns (bytes4) {\n    //     return\n    //         bytes4(\n    //             keccak256(\"onERC721Received(address,address,uint256,bytes)\")\n    //         );\n    // }\n    function onERC721Received(\n        address,\n        address,\n        uint256,\n        bytes memory\n    ) public virtual override returns (bytes4) {\n        return this.onERC721Received.selector;\n    }\n\n    //_____________________________Helper Functions Begin Here_____________________________//\n\n    function minimum(uint256 a, uint256 b) internal pure returns (uint256) {\n        return a.min(b);\n    }\n\n    ///@notice returns the total eth quantity owed by a user\n    function totalValueBorrowed(address _buyer) public view returns (uint256) {\n        return totalborrowedETH[_buyer];\n    }\n\n    ///@notice returns value owed on 1 NFT used as collateral\n    function valueBorrowedOneNFT(\n        address _buyer,\n        address _collection,\n        uint256 _tokenID\n    ) public view returns (uint256) {\n        return loanTracker[_buyer][_collection][_tokenID].amountOwed;\n    }\n\n    ///@notice returns address of seller who has an NFT as collateral\n    function sellerCollateralNFT(\n        address _buyer,\n        address _collection,\n        uint256 _tokenID\n    ) public view returns (address) {\n        return loanTracker[_buyer][_collection][_tokenID].seller;\n    }\n\n    // function stringer(address _contract, uint256 tokenID)\n    //     public\n    //     view\n    //     returns (bytes memory)\n    // {\n    //     return abi.encodePacked(_contract, Strings.toString(tokenID));\n    // }\n\n    function number(uint256 tokenID) public view returns (bytes memory) {\n        //return Strings.toString(tokenID);\n        return abi.encodePacked(tokenID);\n    }\n\n    function stringer2(address _contract, uint256 tokenID)\n        public\n        view\n        returns (bytes memory)\n    {\n        return abi.encodePacked(_contract, tokenID);\n    }\n\n    function emergencyExit(address nft, uint256 _tokenID) public {\n        IERC721(nft).safeTransferFrom(address(this), msg.sender, _tokenID);\n    }\n}\n","sourcePath":"contracts/Barter.sol","deployment":{"address":"0x43f93860686a2bB46e99968F8F693f2fb8f04C18","chainid":"4","blockHeight":10464529}}