{"abi":[{"inputs":[],"stateMutability":"nonpayable","type":"constructor","name":"constructor"},{"inputs":[],"name":"WETH","outputs":[{"internalType":"address","name":"","type":"address"}],"stateMutability":"view","type":"function"},{"inputs":[{"internalType":"address","name":"_buyer","type":"address"},{"internalType":"address","name":"_seller","type":"address"},{"internalType":"address","name":"_collection","type":"address"},{"internalType":"uint256","name":"_tokenID","type":"uint256"},{"internalType":"uint256","name":"_itemValue","type":"uint256"}],"name":"collateralizedPurchase","outputs":[],"stateMutability":"nonpayable","type":"function"},{"inputs":[{"internalType":"address","name":"_buyer","type":"address"},{"internalType":"address","name":"_seller","type":"address"},{"internalType":"address","name":"_collection","type":"address"},{"internalType":"uint256","name":"_tokenID","type":"uint256"}],"name":"exchangeNFT","outputs":[],"stateMutability":"nonpayable","type":"function"},{"inputs":[{"internalType":"address","name":"","type":"address"},{"internalType":"address","name":"","type":"address"},{"internalType":"uint256","name":"","type":"uint256"}],"name":"loanTracker","outputs":[{"internalType":"uint256","name":"amountOwed","type":"uint256"},{"internalType":"address","name":"buyer","type":"address"},{"internalType":"address","name":"seller","type":"address"}],"stateMutability":"view","type":"function"},{"inputs":[{"internalType":"uint256","name":"tokenID","type":"uint256"}],"name":"number","outputs":[{"internalType":"bytes","name":"","type":"bytes"}],"stateMutability":"view","type":"function"},{"inputs":[{"internalType":"address","name":"_collection","type":"address"},{"internalType":"uint256","name":"_tokenID","type":"uint256"},{"internalType":"uint256","name":"_amount","type":"uint256"}],"name":"repay","outputs":[],"stateMutability":"nonpayable","type":"function"},{"inputs":[{"internalType":"address","name":"_buyer","type":"address"},{"internalType":"address","name":"_collection","type":"address"},{"internalType":"uint256","name":"_tokenID","type":"uint256"}],"name":"sellerCollateralNFT","outputs":[{"internalType":"address","name":"","type":"address"}],"stateMutability":"view","type":"function"},{"inputs":[{"internalType":"address","name":"_contract","type":"address"},{"internalType":"uint256","name":"tokenID","type":"uint256"}],"name":"stringer2","outputs":[{"internalType":"bytes","name":"","type":"bytes"}],"stateMutability":"view","type":"function"},{"inputs":[{"internalType":"address","name":"_buyer","type":"address"}],"name":"totalValueBorrowed","outputs":[{"internalType":"uint256","name":"","type":"uint256"}],"stateMutability":"view","type":"function"},{"inputs":[{"internalType":"address","name":"_buyer","type":"address"},{"internalType":"address","name":"_collection","type":"address"},{"internalType":"uint256","name":"_tokenID","type":"uint256"}],"name":"valueBorrowedOneNFT","outputs":[{"internalType":"uint256","name":"","type":"uint256"}],"stateMutability":"view","type":"function"}],"bytecode":"608060405234801561001057600080fd5b50600280546001600160a01b03191633179055610a5a806100326000396000f3fe608060405234801561001057600080fd5b506004361061009e5760003560e01c8063946ccfc011610066578063946ccfc0146101605780639fed0300146101cf578063ad5c46481461021d578063f1076da114610238578063f2df757b1461028457600080fd5b80630b1eedb8146100a35780633a1657b4146100b8578063431aabc21461011a578063617a19c01461013a5780638cd2e0c71461014d575b600080fd5b6100b66100b13660046107b7565b6102ad565b005b6100fd6100c6366004610802565b6001600160a01b03928316600090815260016020908152604080832094861683529381528382209282529190915220600201541690565b6040516001600160a01b0390911681526020015b60405180910390f35b61012d61012836600461083e565b610315565b6040516101119190610857565b6100b66101483660046108ac565b610340565b6100b661015b366004610901565b6104e4565b6101aa61016e366004610802565b60016020818152600094855260408086208252938552838520905290835291208054918101546002909101546001600160a01b03918216911683565b604080519384526001600160a01b039283166020850152911690820152606001610111565b61020f6101dd366004610802565b6001600160a01b0392831660009081526001602090815260408083209490951682529283528381209181529152205490565b604051908152602001610111565b6100fd73c778417e063141139fce010982780140aa0cd5ab81565b61012d610246366004610934565b604051606083811b6bffffffffffffffffffffffff191660208301526034820183905290605401604051602081830303815290604052905092915050565b61020f61029236600461095e565b6001600160a01b031660009081526020819052604090205490565b604051632142170760e11b81526001600160a01b038316906342842e0e906102dd90879087908690600401610980565b600060405180830381600087803b1580156102f757600080fd5b505af115801561030b573d6000803e3d6000fd5b5050505050505050565b60608160405160200161032a91815260200190565b6040516020818303038152906040529050919050565b6001600160a01b038581166000908152600160209081526040808320878516845282528083208684529091529020600201548116908516146103b4576001600160a01b038086166000908152600160209081526040808320938716835292815282822085835290522054156103b457600080fd5b604051632142170760e11b81526001600160a01b038416906342842e0e906103e490889030908790600401610980565b600060405180830381600087803b1580156103fe57600080fd5b505af1158015610412573d6000803e3d6000fd5b505050506001600160a01b0385811660009081526001602090815260408083209387168352928152828220858352905290812080548392906104559084906109ba565b90915550506001600160a01b038516600090815260208190526040812080548392906104829084906109ba565b9091555050506001600160a01b03938416600081815260016020818152604080842096891684529581528583209483529390935292909220600281018054949095166001600160a01b0319948516179094559290920180549091169091179055565b6040516370a0823160e01b8152336004820152819073c778417e063141139fce010982780140aa0cd5ab906370a0823190602401602060405180830381865afa158015610535573d6000803e3d6000fd5b505050506040513d601f19601f8201168201806040525081019061055991906109d2565b101561056457600080fd5b3360009081526001602090815260408083206001600160a01b038716845282528083208584529091529020548111156105ed5760405162461bcd60e51b815260206004820152602160248201527f43616e6e6f7420706179206261636b206d6f7265207468616e20796f75206f776044820152606560f81b606482015260840160405180910390fd5b3360008181526001602090815260408083206001600160a01b038881168552908352818420878552909252918290206002015491516323b872dd60e01b815273c778417e063141139fce010982780140aa0cd5ab936323b872dd9361065b9391929116908690600401610980565b6020604051808303816000875af115801561067a573d6000803e3d6000fd5b505050506040513d601f19601f8201168201806040525081019061069e91906109eb565b503360009081526001602090815260408083206001600160a01b03871684528252808320858452909152812080548392906106da908490610a0d565b909155505033600090815260208190526040812080548392906106fe908490610a0d565b90915550503360009081526001602090815260408083206001600160a01b0387168452825280832085845290915290205461079657604051632142170760e11b81526001600160a01b038416906342842e0e9061076390309033908790600401610980565b600060405180830381600087803b15801561077d57600080fd5b505af1158015610791573d6000803e3d6000fd5b505050505b505050565b80356001600160a01b03811681146107b257600080fd5b919050565b600080600080608085870312156107cd57600080fd5b6107d68561079b565b93506107e46020860161079b565b92506107f26040860161079b565b9396929550929360600135925050565b60008060006060848603121561081757600080fd5b6108208461079b565b925061082e6020850161079b565b9150604084013590509250925092565b60006020828403121561085057600080fd5b5035919050565b600060208083528351808285015260005b8181101561088457858101830151858201604001528201610868565b81811115610896576000604083870101525b50601f01601f1916929092016040019392505050565b600080600080600060a086880312156108c457600080fd5b6108cd8661079b565b94506108db6020870161079b565b93506108e96040870161079b565b94979396509394606081013594506080013592915050565b60008060006060848603121561091657600080fd5b61091f8461079b565b95602085013595506040909401359392505050565b6000806040838503121561094757600080fd5b6109508361079b565b946020939093013593505050565b60006020828403121561097057600080fd5b6109798261079b565b9392505050565b6001600160a01b039384168152919092166020820152604081019190915260600190565b634e487b7160e01b600052601160045260246000fd5b600082198211156109cd576109cd6109a4565b500190565b6000602082840312156109e457600080fd5b5051919050565b6000602082840312156109fd57600080fd5b8151801515811461097957600080fd5b600082821015610a1f57610a1f6109a4565b50039056fea2646970667358221220cbd6772a2ba59c953a74432614bb1285ba95c2d59ae18c153f4831816585b60364736f6c634300080b0033","bytecodeSha1":"8cd18a29fc349dadfd77ddb398738952e0536df6","compiler":{"evm_version":"istanbul","optimizer":{"enabled":true,"runs":200},"version":"0.8.11+commit.d7f03943"},"contractName":"Barter","language":"Solidity","natspec":{"kind":"dev","methods":{"collateralizedPurchase(address,address,address,uint256,uint256)":{"details":"the calling contract/function must approve the transfer to this contract address","notice":"function transfers ownership from buyer to this contract to be held as collateralbuyer will automaticall receive thier NFT back once they repay the item value"},"exchangeNFT(address,address,address,uint256)":{"details":"the calling contract/function must approve the transfer to the seller's address","notice":"function transfers ownership from buyer to seller"},"repay(address,uint256,uint256)":{"details":"the calling contract/function must approve the transfer of ERC20 to the seller address","notice":"buyer pays back what they owe in WETH only"},"sellerCollateralNFT(address,address,uint256)":{"notice":"returns address of seller who has an NFT as collateral"},"totalValueBorrowed(address)":{"notice":"returns the total eth quantity owed by a user"},"valueBorrowedOneNFT(address,address,uint256)":{"notice":"returns value owed on 1 NFT used as collateral"}},"version":1},"opcodes":"PUSH1 0x80 PUSH1 0x40 MSTORE CALLVALUE DUP1 ISZERO PUSH2 0x10 JUMPI PUSH1 0x0 DUP1 REVERT JUMPDEST POP PUSH1 0x4 CALLDATASIZE LT PUSH2 0x9E JUMPI PUSH1 0x0 CALLDATALOAD PUSH1 0xE0 SHR DUP1 PUSH4 0x946CCFC0 GT PUSH2 0x66 JUMPI DUP1 PUSH4 0x946CCFC0 EQ PUSH2 0x160 JUMPI DUP1 PUSH4 0x9FED0300 EQ PUSH2 0x1CF JUMPI DUP1 PUSH4 0xAD5C4648 EQ PUSH2 0x21D JUMPI DUP1 PUSH4 0xF1076DA1 EQ PUSH2 0x238 JUMPI DUP1 PUSH4 0xF2DF757B EQ PUSH2 0x284 JUMPI PUSH1 0x0 DUP1 REVERT JUMPDEST DUP1 PUSH4 0xB1EEDB8 EQ PUSH2 0xA3 JUMPI DUP1 PUSH4 0x3A1657B4 EQ PUSH2 0xB8 JUMPI DUP1 PUSH4 0x431AABC2 EQ PUSH2 0x11A JUMPI DUP1 PUSH4 0x617A19C0 EQ PUSH2 0x13A JUMPI DUP1 PUSH4 0x8CD2E0C7 EQ PUSH2 0x14D JUMPI JUMPDEST PUSH1 0x0 DUP1 REVERT JUMPDEST PUSH2 0xB6 PUSH2 0xB1 CALLDATASIZE PUSH1 0x4 PUSH2 0x7B7 JUMP JUMPDEST PUSH2 0x2AD JUMP JUMPDEST STOP JUMPDEST PUSH2 0xFD PUSH2 0xC6 CALLDATASIZE PUSH1 0x4 PUSH2 0x802 JUMP JUMPDEST PUSH1 0x1 PUSH1 0x1 PUSH1 0xA0 SHL SUB SWAP3 DUP4 AND PUSH1 0x0 SWAP1 DUP2 MSTORE PUSH1 0x1 PUSH1 0x20 SWAP1 DUP2 MSTORE PUSH1 0x40 DUP1 DUP4 KECCAK256 SWAP5 DUP7 AND DUP4 MSTORE SWAP4 DUP2 MSTORE DUP4 DUP3 KECCAK256 SWAP3 DUP3 MSTORE SWAP2 SWAP1 SWAP2 MSTORE KECCAK256 PUSH1 0x2 ADD SLOAD AND SWAP1 JUMP JUMPDEST PUSH1 0x40 MLOAD PUSH1 0x1 PUSH1 0x1 PUSH1 0xA0 SHL SUB SWAP1 SWAP2 AND DUP2 MSTORE PUSH1 0x20 ADD JUMPDEST PUSH1 0x40 MLOAD DUP1 SWAP2 SUB SWAP1 RETURN JUMPDEST PUSH2 0x12D PUSH2 0x128 CALLDATASIZE PUSH1 0x4 PUSH2 0x83E JUMP JUMPDEST PUSH2 0x315 JUMP JUMPDEST PUSH1 0x40 MLOAD PUSH2 0x111 SWAP2 SWAP1 PUSH2 0x857 JUMP JUMPDEST PUSH2 0xB6 PUSH2 0x148 CALLDATASIZE PUSH1 0x4 PUSH2 0x8AC JUMP JUMPDEST PUSH2 0x340 JUMP JUMPDEST PUSH2 0xB6 PUSH2 0x15B CALLDATASIZE PUSH1 0x4 PUSH2 0x901 JUMP JUMPDEST PUSH2 0x4E4 JUMP JUMPDEST PUSH2 0x1AA PUSH2 0x16E CALLDATASIZE PUSH1 0x4 PUSH2 0x802 JUMP JUMPDEST PUSH1 0x1 PUSH1 0x20 DUP2 DUP2 MSTORE PUSH1 0x0 SWAP5 DUP6 MSTORE PUSH1 0x40 DUP1 DUP7 KECCAK256 DUP3 MSTORE SWAP4 DUP6 MSTORE DUP4 DUP6 KECCAK256 SWAP1 MSTORE SWAP1 DUP4 MSTORE SWAP2 KECCAK256 DUP1 SLOAD SWAP2 DUP2 ADD SLOAD PUSH1 0x2 SWAP1 SWAP2 ADD SLOAD PUSH1 0x1 PUSH1 0x1 PUSH1 0xA0 SHL SUB SWAP2 DUP3 AND SWAP2 AND DUP4 JUMP JUMPDEST PUSH1 0x40 DUP1 MLOAD SWAP4 DUP5 MSTORE PUSH1 0x1 PUSH1 0x1 PUSH1 0xA0 SHL SUB SWAP3 DUP4 AND PUSH1 0x20 DUP6 ADD MSTORE SWAP2 AND SWAP1 DUP3 ADD MSTORE PUSH1 0x60 ADD PUSH2 0x111 JUMP JUMPDEST PUSH2 0x20F PUSH2 0x1DD CALLDATASIZE PUSH1 0x4 PUSH2 0x802 JUMP JUMPDEST PUSH1 0x1 PUSH1 0x1 PUSH1 0xA0 SHL SUB SWAP3 DUP4 AND PUSH1 0x0 SWAP1 DUP2 MSTORE PUSH1 0x1 PUSH1 0x20 SWAP1 DUP2 MSTORE PUSH1 0x40 DUP1 DUP4 KECCAK256 SWAP5 SWAP1 SWAP6 AND DUP3 MSTORE SWAP3 DUP4 MSTORE DUP4 DUP2 KECCAK256 SWAP2 DUP2 MSTORE SWAP2 MSTORE KECCAK256 SLOAD SWAP1 JUMP JUMPDEST PUSH1 0x40 MLOAD SWAP1 DUP2 MSTORE PUSH1 0x20 ADD PUSH2 0x111 JUMP JUMPDEST PUSH2 0xFD PUSH20 0xC778417E063141139FCE010982780140AA0CD5AB DUP2 JUMP JUMPDEST PUSH2 0x12D PUSH2 0x246 CALLDATASIZE PUSH1 0x4 PUSH2 0x934 JUMP JUMPDEST PUSH1 0x40 MLOAD PUSH1 0x60 DUP4 DUP2 SHL PUSH12 0xFFFFFFFFFFFFFFFFFFFFFFFF NOT AND PUSH1 0x20 DUP4 ADD MSTORE PUSH1 0x34 DUP3 ADD DUP4 SWAP1 MSTORE SWAP1 PUSH1 0x54 ADD PUSH1 0x40 MLOAD PUSH1 0x20 DUP2 DUP4 SUB SUB DUP2 MSTORE SWAP1 PUSH1 0x40 MSTORE SWAP1 POP SWAP3 SWAP2 POP POP JUMP JUMPDEST PUSH2 0x20F PUSH2 0x292 CALLDATASIZE PUSH1 0x4 PUSH2 0x95E JUMP JUMPDEST PUSH1 0x1 PUSH1 0x1 PUSH1 0xA0 SHL SUB AND PUSH1 0x0 SWAP1 DUP2 MSTORE PUSH1 0x20 DUP2 SWAP1 MSTORE PUSH1 0x40 SWAP1 KECCAK256 SLOAD SWAP1 JUMP JUMPDEST PUSH1 0x40 MLOAD PUSH4 0x21421707 PUSH1 0xE1 SHL DUP2 MSTORE PUSH1 0x1 PUSH1 0x1 PUSH1 0xA0 SHL SUB DUP4 AND SWAP1 PUSH4 0x42842E0E SWAP1 PUSH2 0x2DD SWAP1 DUP8 SWAP1 DUP8 SWAP1 DUP7 SWAP1 PUSH1 0x4 ADD PUSH2 0x980 JUMP JUMPDEST PUSH1 0x0 PUSH1 0x40 MLOAD DUP1 DUP4 SUB DUP2 PUSH1 0x0 DUP8 DUP1 EXTCODESIZE ISZERO DUP1 ISZERO PUSH2 0x2F7 JUMPI PUSH1 0x0 DUP1 REVERT JUMPDEST POP GAS CALL ISZERO DUP1 ISZERO PUSH2 0x30B JUMPI RETURNDATASIZE PUSH1 0x0 DUP1 RETURNDATACOPY RETURNDATASIZE PUSH1 0x0 REVERT JUMPDEST POP POP POP POP POP POP POP POP JUMP JUMPDEST PUSH1 0x60 DUP2 PUSH1 0x40 MLOAD PUSH1 0x20 ADD PUSH2 0x32A SWAP2 DUP2 MSTORE PUSH1 0x20 ADD SWAP1 JUMP JUMPDEST PUSH1 0x40 MLOAD PUSH1 0x20 DUP2 DUP4 SUB SUB DUP2 MSTORE SWAP1 PUSH1 0x40 MSTORE SWAP1 POP SWAP2 SWAP1 POP JUMP JUMPDEST PUSH1 0x1 PUSH1 0x1 PUSH1 0xA0 SHL SUB DUP6 DUP2 AND PUSH1 0x0 SWAP1 DUP2 MSTORE PUSH1 0x1 PUSH1 0x20 SWAP1 DUP2 MSTORE PUSH1 0x40 DUP1 DUP4 KECCAK256 DUP8 DUP6 AND DUP5 MSTORE DUP3 MSTORE DUP1 DUP4 KECCAK256 DUP7 DUP5 MSTORE SWAP1 SWAP2 MSTORE SWAP1 KECCAK256 PUSH1 0x2 ADD SLOAD DUP2 AND SWAP1 DUP6 AND EQ PUSH2 0x3B4 JUMPI PUSH1 0x1 PUSH1 0x1 PUSH1 0xA0 SHL SUB DUP1 DUP7 AND PUSH1 0x0 SWAP1 DUP2 MSTORE PUSH1 0x1 PUSH1 0x20 SWAP1 DUP2 MSTORE PUSH1 0x40 DUP1 DUP4 KECCAK256 SWAP4 DUP8 AND DUP4 MSTORE SWAP3 DUP2 MSTORE DUP3 DUP3 KECCAK256 DUP6 DUP4 MSTORE SWAP1 MSTORE KECCAK256 SLOAD ISZERO PUSH2 0x3B4 JUMPI PUSH1 0x0 DUP1 REVERT JUMPDEST PUSH1 0x40 MLOAD PUSH4 0x21421707 PUSH1 0xE1 SHL DUP2 MSTORE PUSH1 0x1 PUSH1 0x1 PUSH1 0xA0 SHL SUB DUP5 AND SWAP1 PUSH4 0x42842E0E SWAP1 PUSH2 0x3E4 SWAP1 DUP9 SWAP1 ADDRESS SWAP1 DUP8 SWAP1 PUSH1 0x4 ADD PUSH2 0x980 JUMP JUMPDEST PUSH1 0x0 PUSH1 0x40 MLOAD DUP1 DUP4 SUB DUP2 PUSH1 0x0 DUP8 DUP1 EXTCODESIZE ISZERO DUP1 ISZERO PUSH2 0x3FE JUMPI PUSH1 0x0 DUP1 REVERT JUMPDEST POP GAS CALL ISZERO DUP1 ISZERO PUSH2 0x412 JUMPI RETURNDATASIZE PUSH1 0x0 DUP1 RETURNDATACOPY RETURNDATASIZE PUSH1 0x0 REVERT JUMPDEST POP POP POP POP PUSH1 0x1 PUSH1 0x1 PUSH1 0xA0 SHL SUB DUP6 DUP2 AND PUSH1 0x0 SWAP1 DUP2 MSTORE PUSH1 0x1 PUSH1 0x20 SWAP1 DUP2 MSTORE PUSH1 0x40 DUP1 DUP4 KECCAK256 SWAP4 DUP8 AND DUP4 MSTORE SWAP3 DUP2 MSTORE DUP3 DUP3 KECCAK256 DUP6 DUP4 MSTORE SWAP1 MSTORE SWAP1 DUP2 KECCAK256 DUP1 SLOAD DUP4 SWAP3 SWAP1 PUSH2 0x455 SWAP1 DUP5 SWAP1 PUSH2 0x9BA JUMP JUMPDEST SWAP1 SWAP2 SSTORE POP POP PUSH1 0x1 PUSH1 0x1 PUSH1 0xA0 SHL SUB DUP6 AND PUSH1 0x0 SWAP1 DUP2 MSTORE PUSH1 0x20 DUP2 SWAP1 MSTORE PUSH1 0x40 DUP2 KECCAK256 DUP1 SLOAD DUP4 SWAP3 SWAP1 PUSH2 0x482 SWAP1 DUP5 SWAP1 PUSH2 0x9BA JUMP JUMPDEST SWAP1 SWAP2 SSTORE POP POP POP PUSH1 0x1 PUSH1 0x1 PUSH1 0xA0 SHL SUB SWAP4 DUP5 AND PUSH1 0x0 DUP2 DUP2 MSTORE PUSH1 0x1 PUSH1 0x20 DUP2 DUP2 MSTORE PUSH1 0x40 DUP1 DUP5 KECCAK256 SWAP7 DUP10 AND DUP5 MSTORE SWAP6 DUP2 MSTORE DUP6 DUP4 KECCAK256 SWAP5 DUP4 MSTORE SWAP4 SWAP1 SWAP4 MSTORE SWAP3 SWAP1 SWAP3 KECCAK256 PUSH1 0x2 DUP2 ADD DUP1 SLOAD SWAP5 SWAP1 SWAP6 AND PUSH1 0x1 PUSH1 0x1 PUSH1 0xA0 SHL SUB NOT SWAP5 DUP6 AND OR SWAP1 SWAP5 SSTORE SWAP3 SWAP1 SWAP3 ADD DUP1 SLOAD SWAP1 SWAP2 AND SWAP1 SWAP2 OR SWAP1 SSTORE JUMP JUMPDEST PUSH1 0x40 MLOAD PUSH4 0x70A08231 PUSH1 0xE0 SHL DUP2 MSTORE CALLER PUSH1 0x4 DUP3 ADD MSTORE DUP2 SWAP1 PUSH20 0xC778417E063141139FCE010982780140AA0CD5AB SWAP1 PUSH4 0x70A08231 SWAP1 PUSH1 0x24 ADD PUSH1 0x20 PUSH1 0x40 MLOAD DUP1 DUP4 SUB DUP2 DUP7 GAS STATICCALL ISZERO DUP1 ISZERO PUSH2 0x535 JUMPI RETURNDATASIZE PUSH1 0x0 DUP1 RETURNDATACOPY RETURNDATASIZE PUSH1 0x0 REVERT JUMPDEST POP POP POP POP PUSH1 0x40 MLOAD RETURNDATASIZE PUSH1 0x1F NOT PUSH1 0x1F DUP3 ADD AND DUP3 ADD DUP1 PUSH1 0x40 MSTORE POP DUP2 ADD SWAP1 PUSH2 0x559 SWAP2 SWAP1 PUSH2 0x9D2 JUMP JUMPDEST LT ISZERO PUSH2 0x564 JUMPI PUSH1 0x0 DUP1 REVERT JUMPDEST CALLER PUSH1 0x0 SWAP1 DUP2 MSTORE PUSH1 0x1 PUSH1 0x20 SWAP1 DUP2 MSTORE PUSH1 0x40 DUP1 DUP4 KECCAK256 PUSH1 0x1 PUSH1 0x1 PUSH1 0xA0 SHL SUB DUP8 AND DUP5 MSTORE DUP3 MSTORE DUP1 DUP4 KECCAK256 DUP6 DUP5 MSTORE SWAP1 SWAP2 MSTORE SWAP1 KECCAK256 SLOAD DUP2 GT ISZERO PUSH2 0x5ED JUMPI PUSH1 0x40 MLOAD PUSH3 0x461BCD PUSH1 0xE5 SHL DUP2 MSTORE PUSH1 0x20 PUSH1 0x4 DUP3 ADD MSTORE PUSH1 0x21 PUSH1 0x24 DUP3 ADD MSTORE PUSH32 0x43616E6E6F7420706179206261636B206D6F7265207468616E20796F75206F77 PUSH1 0x44 DUP3 ADD MSTORE PUSH1 0x65 PUSH1 0xF8 SHL PUSH1 0x64 DUP3 ADD MSTORE PUSH1 0x84 ADD PUSH1 0x40 MLOAD DUP1 SWAP2 SUB SWAP1 REVERT JUMPDEST CALLER PUSH1 0x0 DUP2 DUP2 MSTORE PUSH1 0x1 PUSH1 0x20 SWAP1 DUP2 MSTORE PUSH1 0x40 DUP1 DUP4 KECCAK256 PUSH1 0x1 PUSH1 0x1 PUSH1 0xA0 SHL SUB DUP9 DUP2 AND DUP6 MSTORE SWAP1 DUP4 MSTORE DUP2 DUP5 KECCAK256 DUP8 DUP6 MSTORE SWAP1 SWAP3 MSTORE SWAP2 DUP3 SWAP1 KECCAK256 PUSH1 0x2 ADD SLOAD SWAP2 MLOAD PUSH4 0x23B872DD PUSH1 0xE0 SHL DUP2 MSTORE PUSH20 0xC778417E063141139FCE010982780140AA0CD5AB SWAP4 PUSH4 0x23B872DD SWAP4 PUSH2 0x65B SWAP4 SWAP2 SWAP3 SWAP2 AND SWAP1 DUP7 SWAP1 PUSH1 0x4 ADD PUSH2 0x980 JUMP JUMPDEST PUSH1 0x20 PUSH1 0x40 MLOAD DUP1 DUP4 SUB DUP2 PUSH1 0x0 DUP8 GAS CALL ISZERO DUP1 ISZERO PUSH2 0x67A JUMPI RETURNDATASIZE PUSH1 0x0 DUP1 RETURNDATACOPY RETURNDATASIZE PUSH1 0x0 REVERT JUMPDEST POP POP POP POP PUSH1 0x40 MLOAD RETURNDATASIZE PUSH1 0x1F NOT PUSH1 0x1F DUP3 ADD AND DUP3 ADD DUP1 PUSH1 0x40 MSTORE POP DUP2 ADD SWAP1 PUSH2 0x69E SWAP2 SWAP1 PUSH2 0x9EB JUMP JUMPDEST POP CALLER PUSH1 0x0 SWAP1 DUP2 MSTORE PUSH1 0x1 PUSH1 0x20 SWAP1 DUP2 MSTORE PUSH1 0x40 DUP1 DUP4 KECCAK256 PUSH1 0x1 PUSH1 0x1 PUSH1 0xA0 SHL SUB DUP8 AND DUP5 MSTORE DUP3 MSTORE DUP1 DUP4 KECCAK256 DUP6 DUP5 MSTORE SWAP1 SWAP2 MSTORE DUP2 KECCAK256 DUP1 SLOAD DUP4 SWAP3 SWAP1 PUSH2 0x6DA SWAP1 DUP5 SWAP1 PUSH2 0xA0D JUMP JUMPDEST SWAP1 SWAP2 SSTORE POP POP CALLER PUSH1 0x0 SWAP1 DUP2 MSTORE PUSH1 0x20 DUP2 SWAP1 MSTORE PUSH1 0x40 DUP2 KECCAK256 DUP1 SLOAD DUP4 SWAP3 SWAP1 PUSH2 0x6FE SWAP1 DUP5 SWAP1 PUSH2 0xA0D JUMP JUMPDEST SWAP1 SWAP2 SSTORE POP POP CALLER PUSH1 0x0 SWAP1 DUP2 MSTORE PUSH1 0x1 PUSH1 0x20 SWAP1 DUP2 MSTORE PUSH1 0x40 DUP1 DUP4 KECCAK256 PUSH1 0x1 PUSH1 0x1 PUSH1 0xA0 SHL SUB DUP8 AND DUP5 MSTORE DUP3 MSTORE DUP1 DUP4 KECCAK256 DUP6 DUP5 MSTORE SWAP1 SWAP2 MSTORE SWAP1 KECCAK256 SLOAD PUSH2 0x796 JUMPI PUSH1 0x40 MLOAD PUSH4 0x21421707 PUSH1 0xE1 SHL DUP2 MSTORE PUSH1 0x1 PUSH1 0x1 PUSH1 0xA0 SHL SUB DUP5 AND SWAP1 PUSH4 0x42842E0E SWAP1 PUSH2 0x763 SWAP1 ADDRESS SWAP1 CALLER SWAP1 DUP8 SWAP1 PUSH1 0x4 ADD PUSH2 0x980 JUMP JUMPDEST PUSH1 0x0 PUSH1 0x40 MLOAD DUP1 DUP4 SUB DUP2 PUSH1 0x0 DUP8 DUP1 EXTCODESIZE ISZERO DUP1 ISZERO PUSH2 0x77D JUMPI PUSH1 0x0 DUP1 REVERT JUMPDEST POP GAS CALL ISZERO DUP1 ISZERO PUSH2 0x791 JUMPI RETURNDATASIZE PUSH1 0x0 DUP1 RETURNDATACOPY RETURNDATASIZE PUSH1 0x0 REVERT JUMPDEST POP POP POP POP JUMPDEST POP POP POP JUMP JUMPDEST DUP1 CALLDATALOAD PUSH1 0x1 PUSH1 0x1 PUSH1 0xA0 SHL SUB DUP2 AND DUP2 EQ PUSH2 0x7B2 JUMPI PUSH1 0x0 DUP1 REVERT JUMPDEST SWAP2 SWAP1 POP JUMP JUMPDEST PUSH1 0x0 DUP1 PUSH1 0x0 DUP1 PUSH1 0x80 DUP6 DUP8 SUB SLT ISZERO PUSH2 0x7CD JUMPI PUSH1 0x0 DUP1 REVERT JUMPDEST PUSH2 0x7D6 DUP6 PUSH2 0x79B JUMP JUMPDEST SWAP4 POP PUSH2 0x7E4 PUSH1 0x20 DUP7 ADD PUSH2 0x79B JUMP JUMPDEST SWAP3 POP PUSH2 0x7F2 PUSH1 0x40 DUP7 ADD PUSH2 0x79B JUMP JUMPDEST SWAP4 SWAP7 SWAP3 SWAP6 POP SWAP3 SWAP4 PUSH1 0x60 ADD CALLDATALOAD SWAP3 POP POP JUMP JUMPDEST PUSH1 0x0 DUP1 PUSH1 0x0 PUSH1 0x60 DUP5 DUP7 SUB SLT ISZERO PUSH2 0x817 JUMPI PUSH1 0x0 DUP1 REVERT JUMPDEST PUSH2 0x820 DUP5 PUSH2 0x79B JUMP JUMPDEST SWAP3 POP PUSH2 0x82E PUSH1 0x20 DUP6 ADD PUSH2 0x79B JUMP JUMPDEST SWAP2 POP PUSH1 0x40 DUP5 ADD CALLDATALOAD SWAP1 POP SWAP3 POP SWAP3 POP SWAP3 JUMP JUMPDEST PUSH1 0x0 PUSH1 0x20 DUP3 DUP5 SUB SLT ISZERO PUSH2 0x850 JUMPI PUSH1 0x0 DUP1 REVERT JUMPDEST POP CALLDATALOAD SWAP2 SWAP1 POP JUMP JUMPDEST PUSH1 0x0 PUSH1 0x20 DUP1 DUP4 MSTORE DUP4 MLOAD DUP1 DUP3 DUP6 ADD MSTORE PUSH1 0x0 JUMPDEST DUP2 DUP2 LT ISZERO PUSH2 0x884 JUMPI DUP6 DUP2 ADD DUP4 ADD MLOAD DUP6 DUP3 ADD PUSH1 0x40 ADD MSTORE DUP3 ADD PUSH2 0x868 JUMP JUMPDEST DUP2 DUP2 GT ISZERO PUSH2 0x896 JUMPI PUSH1 0x0 PUSH1 0x40 DUP4 DUP8 ADD ADD MSTORE JUMPDEST POP PUSH1 0x1F ADD PUSH1 0x1F NOT AND SWAP3 SWAP1 SWAP3 ADD PUSH1 0x40 ADD SWAP4 SWAP3 POP POP POP JUMP JUMPDEST PUSH1 0x0 DUP1 PUSH1 0x0 DUP1 PUSH1 0x0 PUSH1 0xA0 DUP7 DUP9 SUB SLT ISZERO PUSH2 0x8C4 JUMPI PUSH1 0x0 DUP1 REVERT JUMPDEST PUSH2 0x8CD DUP7 PUSH2 0x79B JUMP JUMPDEST SWAP5 POP PUSH2 0x8DB PUSH1 0x20 DUP8 ADD PUSH2 0x79B JUMP JUMPDEST SWAP4 POP PUSH2 0x8E9 PUSH1 0x40 DUP8 ADD PUSH2 0x79B JUMP JUMPDEST SWAP5 SWAP8 SWAP4 SWAP7 POP SWAP4 SWAP5 PUSH1 0x60 DUP2 ADD CALLDATALOAD SWAP5 POP PUSH1 0x80 ADD CALLDATALOAD SWAP3 SWAP2 POP POP JUMP JUMPDEST PUSH1 0x0 DUP1 PUSH1 0x0 PUSH1 0x60 DUP5 DUP7 SUB SLT ISZERO PUSH2 0x916 JUMPI PUSH1 0x0 DUP1 REVERT JUMPDEST PUSH2 0x91F DUP5 PUSH2 0x79B JUMP JUMPDEST SWAP6 PUSH1 0x20 DUP6 ADD CALLDATALOAD SWAP6 POP PUSH1 0x40 SWAP1 SWAP5 ADD CALLDATALOAD SWAP4 SWAP3 POP POP POP JUMP JUMPDEST PUSH1 0x0 DUP1 PUSH1 0x40 DUP4 DUP6 SUB SLT ISZERO PUSH2 0x947 JUMPI PUSH1 0x0 DUP1 REVERT JUMPDEST PUSH2 0x950 DUP4 PUSH2 0x79B JUMP JUMPDEST SWAP5 PUSH1 0x20 SWAP4 SWAP1 SWAP4 ADD CALLDATALOAD SWAP4 POP POP POP JUMP JUMPDEST PUSH1 0x0 PUSH1 0x20 DUP3 DUP5 SUB SLT ISZERO PUSH2 0x970 JUMPI PUSH1 0x0 DUP1 REVERT JUMPDEST PUSH2 0x979 DUP3 PUSH2 0x79B JUMP JUMPDEST SWAP4 SWAP3 POP POP POP JUMP JUMPDEST PUSH1 0x1 PUSH1 0x1 PUSH1 0xA0 SHL SUB SWAP4 DUP5 AND DUP2 MSTORE SWAP2 SWAP1 SWAP3 AND PUSH1 0x20 DUP3 ADD MSTORE PUSH1 0x40 DUP2 ADD SWAP2 SWAP1 SWAP2 MSTORE PUSH1 0x60 ADD SWAP1 JUMP JUMPDEST PUSH4 0x4E487B71 PUSH1 0xE0 SHL PUSH1 0x0 MSTORE PUSH1 0x11 PUSH1 0x4 MSTORE PUSH1 0x24 PUSH1 0x0 REVERT JUMPDEST PUSH1 0x0 DUP3 NOT DUP3 GT ISZERO PUSH2 0x9CD JUMPI PUSH2 0x9CD PUSH2 0x9A4 JUMP JUMPDEST POP ADD SWAP1 JUMP JUMPDEST PUSH1 0x0 PUSH1 0x20 DUP3 DUP5 SUB SLT ISZERO PUSH2 0x9E4 JUMPI PUSH1 0x0 DUP1 REVERT JUMPDEST POP MLOAD SWAP2 SWAP1 POP JUMP JUMPDEST PUSH1 0x0 PUSH1 0x20 DUP3 DUP5 SUB SLT ISZERO PUSH2 0x9FD JUMPI PUSH1 0x0 DUP1 REVERT JUMPDEST DUP2 MLOAD DUP1 ISZERO ISZERO DUP2 EQ PUSH2 0x979 JUMPI PUSH1 0x0 DUP1 REVERT JUMPDEST PUSH1 0x0 DUP3 DUP3 LT ISZERO PUSH2 0xA1F JUMPI PUSH2 0xA1F PUSH2 0x9A4 JUMP JUMPDEST POP SUB SWAP1 JUMP INVALID LOG2 PUSH5 0x6970667358 0x22 SLT KECCAK256 0xCB 0xD6 PUSH24 0x2A2BA59C953A74432614BB1285BA95C2D59AE18C153F4831 DUP2 PUSH6 0x85B60364736F PUSH13 0x634300080B0033000000000000 ","sha1":"3fb163919a0c745e140cf2a140bb51125170639c","source":"//SPDX-License-Identifier: MIT\n\npragma solidity ^0.8.0;\n\nimport \"@openzeppelin/contracts/token/ERC721/IERC721.sol\";\nimport \"@openzeppelin/contracts/token/ERC20/IERC20.sol\";\n//import \"@openzeppelin/contracts/utils/Strings.sol\";\n\nimport \"./Math.sol\";\n\ncontract Barter {\n    using Math for uint256;\n\n    // struct for what each person owes, specific to what they bought\n    struct userBorrow {\n        uint256 amountOwed;\n        address buyer;\n        address seller;\n    }\n\n    mapping(address => uint256) totalborrowedETH;\n\n    // mapping: buyer -> NFT Contract => tokenID -> struct(money owed, buyer, seller)\n    mapping(address => mapping(address => mapping(uint256 => userBorrow)))\n        public loanTracker;\n    // will have to handle multiple purchases\n\n    address public constant WETH = 0xc778417E063141139Fce010982780140Aa0cD5Ab;\n\n    address owner;\n\n    constructor() {\n        owner = msg.sender;\n    }\n\n    ///@notice function transfers ownership from buyer to seller\n    ///@dev the calling contract/function must approve the transfer to the seller's address\n    function exchangeNFT(\n        address _buyer,\n        address _seller,\n        address _collection,\n        uint256 _tokenID\n    ) public {\n        IERC721(_collection).safeTransferFrom(_buyer, _seller, _tokenID);\n    }\n\n    ///@notice function transfers ownership from buyer to this contract to be held as collateral\n    ///@notice buyer will automaticall receive thier NFT back once they repay the item value\n    ///@dev the calling contract/function must approve the transfer to this contract address\n\n    // backend should check to see if there is enough collateral value, it will also allow user to buy multiple items against one NFT\n    function collateralizedPurchase(\n        address _buyer,\n        address _seller,\n        address _collection,\n        uint256 _tokenID,\n        uint256 _itemValue\n    ) public {\n        //if they purchsed from new seller with same NFT, they must have payed off thier old debts\n        if (loanTracker[_buyer][_collection][_tokenID].seller != _seller) {\n            require(loanTracker[_buyer][_collection][_tokenID].amountOwed == 0);\n        }\n\n        IERC721(_collection).safeTransferFrom(_buyer, address(this), _tokenID);\n\n        loanTracker[_buyer][_collection][_tokenID].amountOwed += _itemValue;\n        totalborrowedETH[_buyer] += _itemValue;\n        loanTracker[_buyer][_collection][_tokenID].seller = _seller;\n        //redundant?\n        loanTracker[_buyer][_collection][_tokenID].buyer = _buyer;\n    }\n\n    ///@notice buyer pays back what they owe in WETH only\n    ///@dev the calling contract/function must approve the transfer of ERC20 to the seller address\n    function repay(\n        address _collection,\n        uint256 _tokenID,\n        uint256 _amount\n    ) public {\n        //make sure user has enough WETH\n        require(IERC20(WETH).balanceOf(msg.sender) >= _amount);\n        //could use address _buyer\n        require(\n            loanTracker[msg.sender][_collection][_tokenID].amountOwed >=\n                _amount,\n            \"Cannot pay back more than you owe\"\n        );\n\n        IERC20(WETH).transferFrom(\n            msg.sender,\n            loanTracker[msg.sender][_collection][_tokenID].seller,\n            _amount\n        );\n\n        loanTracker[msg.sender][_collection][_tokenID].amountOwed -= _amount; //minimum( _amount, loanTracker[_buyer][_collection][_tokenID].amountOwed)\n        totalborrowedETH[msg.sender] -= _amount;\n\n        //send NFT if debt is paid\n        if (loanTracker[msg.sender][_collection][_tokenID].amountOwed == 0) {\n            IERC721(_collection).safeTransferFrom(\n                address(this),\n                msg.sender,\n                _tokenID\n            );\n        }\n    }\n\n    //_____________________________Helper Functions Begin Here_____________________________//\n\n    function minimum(uint256 a, uint256 b) internal pure returns (uint256) {\n        return a.min(b);\n    }\n\n    ///@notice returns the total eth quantity owed by a user\n    function totalValueBorrowed(address _buyer) public view returns (uint256) {\n        return totalborrowedETH[_buyer];\n    }\n\n    ///@notice returns value owed on 1 NFT used as collateral\n    function valueBorrowedOneNFT(\n        address _buyer,\n        address _collection,\n        uint256 _tokenID\n    ) public view returns (uint256) {\n        return loanTracker[_buyer][_collection][_tokenID].amountOwed;\n    }\n\n    ///@notice returns address of seller who has an NFT as collateral\n    function sellerCollateralNFT(\n        address _buyer,\n        address _collection,\n        uint256 _tokenID\n    ) public view returns (address) {\n        return loanTracker[_buyer][_collection][_tokenID].seller;\n    }\n\n    // function stringer(address _contract, uint256 tokenID)\n    //     public\n    //     view\n    //     returns (bytes memory)\n    // {\n    //     return abi.encodePacked(_contract, Strings.toString(tokenID));\n    // }\n\n    function number(uint256 tokenID) public view returns (bytes memory) {\n        //return Strings.toString(tokenID);\n        return abi.encodePacked(tokenID);\n    }\n\n    function stringer2(address _contract, uint256 tokenID)\n        public\n        view\n        returns (bytes memory)\n    {\n        return abi.encodePacked(_contract, tokenID);\n    }\n}\n","sourcePath":"contracts/Barter.sol","type":"contract","deployment":{"address":"0x8d00e8B3988ce84F3633ab3952e75E35b88A1d56","chainid":"4","blockHeight":10464120}}